:040000008131C92958
:1000060008007E1480312700131D0A280B28332888
:100016000B10131120008D138E110E140E172100D4
:10002600A00103308531D32580317030F0002330B4
:10003600F1004330F2008830F3008631B626803175
:100046007030F4002330F5007030F0002330F100FA
:100056008731DD2780317008F6008731C42780316B
:100066002700161E37283828E02816122100A0017E
:100076008331DE23803171082000E6007008E50038
:100086007030F0002330F1003530F2008830F30094
:100096008631B62680317030F4002330F50070309A
:1000A600F0002330F1008731DD2780317008F6003B
:1000B6008731C42780310130200066024C30031995
:1000C6006502031C67286828A5280E137030F00007
:1000D6002330F1009430F2008630F3008631B626E4
:1000E60080317030F4002330F5007030F00023309A
:1000F600F1008731DD2780317008F6008731C4278B
:100106008031F0302000CC002230CD002130CE00EE
:100116008830CF006608D1006508D00086312526D4
:100126008031F030F4002230F500F030F00022305B
:10013600F1008731DD2780317008F6008731C4274A
:100146008031E0287030F0002330F1005130F200A9
:100156008830F3008631B62680317030F4002330C3
:10016600F5007030F0002330F1008731DD27803153
:100176007008F6008731C4278031F0302000CC00AB
:100186002230CD000D30CE008830CF006608D10079
:100196006508D000863125268031F030F400223003
:1001A600F500F030F0002230F1008731DD27803194
:1001B6007008F6008731C42780312700161FE4280F
:1001C600E5282629161320008D130E140E178E15FA
:1001D6008331DE23803171082000E4007008E300DB
:1001E6008E1101306402DD30031963020318FC2806
:1001F600FD28262901306402CC3003196302031C52
:100206000529062926298D138E117030F00023301A
:10021600F1007230F2008730F3008631B626803165
:100226007030F4002330F5007030F0002330F10018
:100236008731DD2780317008F6008731C427803189
:100246002100A001A00A2000911E2A292B29C729D6
:100256009112230019082000E90062306906031D87
:1002660035293629C72904306806031D3B293C2950
:100276003D29E8010130DE005E08E8076803031D3A
:100286004529462961297030F0002330F100F63007
:10029600F2008730F3008631B62680317030F400E4
:1002A6002330F5007030F0002330F1008731DD2770
:1002B60080317008F6008731C42780310230200073
:1002C6006806031D6729682983297030F0002330EA
:1002D600F1001630F2008730F3008631B626803101
:1002E6007030F4002330F5007030F0002330F10058
:1002F6008731DD2780317008F6008731C4278031C9
:10030600033020006806031D89298A29A529703033
:10031600F0002330F100D830F2008630F300863149
:10032600B62680317030F4002330F5007030F000CE
:100336002330F1008731DD2780317008F6008731E0
:10034600C4278031043020006806031DAB29AC2980
:10035600C7297030F0002330F100F730F200863004
:10036600F3008631B62680317030F4002330F50074
:100376007030F0002330F1008731DD2780317008BE
:10038600F6008731C42780317E1009008131CB29E0
:10039600F0308400223085000030FE000130FF007E
:1003A6008F31F42781315F308400003085000D30B5
:1003B600FE000030FF008F31F4278131A030840029
:1003C600003085002130FE000030FF008F31F42719
:1003D60081317E1020008431CB2C20003708860026
:1003E6008701403FB900413FBA00390884003A0806
:1003F60085001200253A031D012A022A982A370889
:10040600860087010130810741310318810ADF0127
:10041600E0010310003003180130E700FF30E1006F
:10042600FF30E200C101342AE7143708860087014D
:100436000130810741310318810A342AC101C10AFA
:10044600342A370886008701403FB900413FBA0089
:10045600390884003A0885000008303A0319172A3B
:10046600212A41080319382A392A242A3808F6008D
:10047600370883312123813177082000E000760890
:10048600DF00E01F472A482A4E2A6714DF09E009E1
:10049600DF0A0319E00A370886008701403FC200D9
:1004A600413FC30042088400430885001200753AA4
:1004B600031D5E2A5F2A8E2A3808860087010108F6
:1004C6008400850102308107003FBD00013FBE0068
:1004D6004208013EB9000030433DBA0037088600A5
:1004E60087013908C03F3A08C13F852A3608AC0063
:1004F6003508AB003E08AE003D08AD008231B322A0
:100506008131B22A42088400430885000008753A02
:100516000319792A8E2A20003708860087010130C0
:10052600810741310318810AB22A370886008701FC
:10053600403FB900413FBA00390884003A088500B7
:100546000008BB00BC013B08F0003C08F10036087F
:10055600F3003508F2008331812381318E2A0800A9
:100566002000B001B00A6008B2005F08B1001F3079
:10057600B3000030B4002100C001ED2AFF30B307FC
:10058600FF30B43D3308A13E860087010A30F000F3
:100596000030F1002E08F3002D08F20085314325C6
:1005A60082317008303E81002000B001FF30B10773
:1005B600FF30B23D0A30F0000030F1002E08F300A3
:1005C6002D08F20085310725823171082000AE0022
:1005D6007008AD002000330834040319F32AF42A06
:1005E600112B2D082E04031DF92AFA2AC12A3008D8
:1005F600031DFE2AFF2AC12A3208803AAF00803046
:100606002F02031D082B01303102031C0B2B0C2B70
:10061600112B2000E718102B112BC12A20002C08C3
:10062600A5002B08A4003308A13EA6003208A800A6
:100636003108A70084318724823108002000A300F6
:10064600A101A201230886008701403FF800413F2F
:10065600F900780884007908850012002A3A031DFB
:10066600352B362B682B230886008701013081073E
:1006760041310318810A7608860087010108840043
:10068600850102308107003FA100013FA2007C2BBB
:100696002008F800F9012208F1002108F0000A30CC
:1006A600F2000030F3008731352783317808700770
:1006B6002000A1007908713DA20023088600870169
:1006C6000130810741310318810A2308860087011A
:1006D600403FF800413FF90078088400790885001A
:1006E6000008D03EA0000A302002031C7B2B7C2B86
:1006F6004B2B2208F7002108F60008007208730445
:100706000319862B872B8D2B72087304031D8C2BE4
:100716008D2B922B7008803103208331DD2B7208DC
:1007260086007308870049311600010403199C2BC3
:100736009D2BBD2B72088600730887004931403F08
:10074600F400413FF50072088600730887004231C5
:10075600403FF600413FF7007708803AF8007508F9
:10076600803A7802031DB92B740876020318BC2B55
:10077600BD2BDD2B72088600730887004231720894
:10078600840073088500403F0007F4000131413FB3
:10079600003DF50074088600750887007008810022
:1007A60072088600730887004231013081074131A3
:1007B6000318810A080022001708FC39013897003F
:1007C6009717171FE72BE82BE42B21001E08FC398F
:1007D60002389E001E151E088F3920389E009E176F
:1007E6001D08833924389D001D140B30F200623039
:1007F600890BFB2BF20BFB2B003220008E150B30E6
:10080600F2006230890B052CF20B052C0032210018
:100816009D148F31C7278331003A0319132C142CEA
:100826000C2C20008E1121001B08F9001C0803392E
:10083600FA007908FC39F200F3017A08F400F501B0
:100846007408F500F40172087404F700730875045F
:10085600F8009E011D1022009713FC3097057808BA
:10086600F1007708F000080064002100171017084F
:10087600C139143897008B019801F0309900073080
:100886009500843022009D0023008C018D01863066
:100896008E00043021008C00043024008C002200DD
:1008A6008C01503021008D00103024008D00220074
:1008B6008D01AE3021008E00283024008E0041309C
:1008C60022008E001708FC3901389700F33097058F
:1008D6001712971221001D1022009713FC3097055E
:1008E6000B108B1527001311121511111612151660
:1008F6001412161315171413200018153F309805F7
:10090600303098048B1708002000671C8B2C8C2C29
:10091600942C2508FA002408F900260886314B266F
:1009260084312000A81F982C992C9B2CA701A80184
:10093600A901AA01AF2C2030F0000030F100200000
:100946002508F3002408F200833181238431013025
:100956002000A9070030AA3D2A08803AFD00280891
:10096600803A7D02031DB92C27082902031CBC2CE2
:10097600BD2C9E2C20006718C12CC22CCA2C250821
:10098600FA002408F900260886314B26843108002F
:1009960084313724843103308531772584318F3192
:1009A600E02784318F31D7278431640020008D13EE
:1009B6008E1170302100C1002330C200FF30C30009
:1009C6008530C40086317126843170302100C5001F
:1009D6002330C6007030C1002330C2008731AA27F9
:1009E600843121004108C70087318F2784312100D7
:1009F6002003031DFF2C002DFA2C04308531A5257C
:100A06008431002D8131C929F501F6017008710480
:100A160003190E2D0F2D3E2DF701F70A1B2D013060
:100A2600F035F10D890B132D0130F4007408F7072A
:100A3600F11F1E2D1F2D122D0130F535F60D890BD8
:100A4600202D71087302031D2A2D70087202031CE3
:100A56002D2D2E2D332D7008F2027108F33B7514DF
:100A66000130F136F00C890B342D0130F702031DED
:100A76003D2D3E2D1F2D7608F1007508F00008006B
:100A8600700871040319482D492D722DF501F50AD8
:100A9600552D0130F035F10D890B4D2D0130F40047
:100AA6007408F507F11F582D592D4C2D7108730246
:100AB600031D5F2D70087202031C622D632D672DC6
:100AC6007008F2027108F33B0130F136F00C890B25
:100AD600682D0130F502031D712D722D592D7308F5
:100AE600F1007208F00008002100C300C4019E2D29
:100AF60020008D12640005302100C2000F30C100B5
:100B0600F130890B842DC10B842DC20B842D20005E
:100B16008D16640005302100C2000F30C100F1308F
:100B2600890B932DC10B932DC20B932D0130210000
:100B3600C1004108C40743084402031CA32DA42D89
:100B46007B2D08002100C300C401CC2D20000E100F
:100B5600640005302100C2000F30C100F130890B5E
:100B6600B22DC10BB22DC20BB22D20000E146400A3
:100B760005302100C2000F30C100F130890BC12DB4
:100B8600C10BC12DC20BC12D01302100C10041088E
:100B9600C40743084402031CD12DD22DA92D0800F9
:100BA600F200F301F82D20008D1264000530F100EB
:100BB6000F30F000F130890BDE2DF00BDE2DF10B3E
:100BC600DE2D000020008D1664000530F1000F3088
:100BD600F000F130890BED2DF00BED2DF10BED2D25
:100BE60000000130F0007008F30772087302031C5E
:100BF600FD2DFE2DD62D08000D340A3449346E34F1
:100C06007334743461346E34743420344334613450
:100C16007234653420344234613474347434653447
:100C26007234793420344434693473346334683428
:100C360061347234673465342034493443340D34B6
:100C46000A34003450302000D2004D08D4004C083D
:100C5600D300D501D601DC01DD015330C4000030DC
:100C6600C5004F08C7004E08C6005230C80087317D
:100C76005427863153308600003087004231403F8A
:100C860020004C078400413F4D3D8500800108004F
:100C96002000A300A101A201632E2008FB00FC0195
:100CA6007B08F0007C08F1007A08F3007908F2006E
:100CB60083318123863101302000A1070030A23D17
:100CC60021082307FB007B08860087010108A00096
:100CD6002008031D6F2E702E502E0800210042089A
:100CE600CA004108C9004A08C6004908C500C90A21
:100CF6000319CA0A45088600460887004408C80042
:100D06004308C700C30A0319C40A470884004808F1
:100D160085000008C03F8908031D922E932E762E6B
:100D260008000D340A342034423461347434743487
:100D36006534723479342034623465346C346F34FB
:100D46007734203433342E343134563420342D3431
:100D560020344E346F3474342034473442342034D3
:100D66000D340A3400347108F9007008F800790867
:100D7600F5007808F400F80A0319F90A74088600E1
:100D8600750887007308F7007208F600F20A03195F
:100D9600F30A76088400770885000008C03F8908B2
:100DA600031DD62ED72EBA2E08000D340A34203451
:100DB600503461346E34613473346F346E34693454
:100DC60063342034323430343334323420344434CF
:100DD6006934733463346834613472346734653427
:100DE60020340D340A3400340D340A34203450349F
:100DF60061346E34613473346F346E346934633401
:100E06002034313436343334323420344434693483
:100E1600733463346834613472346734653420342F
:100E26000D340A3400340D340A342034503461341D
:100E36006E34613473346F346E3469346334203401
:100E460032343434373437342034443469347334E8
:100E560063346834613472346734653420340D3455
:100E66000A340034F401F501701C3A2F3B2F3F2F52
:100E76007208F4077308F53D0130F235F30D890B5E
:100E8600402F0130F136F00C890B452F70087104A4
:100E9600031D4E2F4F2F372F7508F1007408F000F1
:100EA600080020004708CB004608CA00652F450801
:100EB600B6004408B5004A30B7004808B80081318A
:100EC600F021873120004A0884004B088500120073
:100ED600031D6E2F6F2F5A2FC401C50108000D3454
:100EE6000A342034423461347434743465347234D0
:100EF6007934203461347434203445344F344C34DE
:100F0600203456346F346C34743461346734653449
:100F160020340D340A3400342100C901A32F4508BA
:100F260086004608870001088F31EA27873101309D
:100F36002100C5070030C63D0130C8004808C90772
:100F460047084902031CA82FA92F922F0800210049
:100F56004208C4004108C300B42F0130C107003065
:100F6600C23D41088600420887000108031DBC2FC8
:100F7600BD2FB02F43084102C1004408423BC200C6
:100F86000800F801D62F7408860075088700010846
:100F96008F31CE2787310130F4070030F53D01301F
:100FA600F7007708F80776087802031CDB2FDC2F9A
:100FB600C62F08007108F3007008F200E62F013012
:100FC600F0070030F13D70088600710887000108BF
:100FD600031DEE2FEF2FE22F72087002F000730848
:100FE600713BF10008000D340A3420344334523486
:100FF6003134323433344134203444346934733434
:1010060063346834613472346734653420340D34A3
:101016000A3400340D340A342034423461347434D2
:1010260074346534723479343A34203425343034A7
:101036003434753420340D340A3400340D340A3413
:1010460020344234613474347434653472347934FF
:101056003A342034253430343434753420340A3468
:101066000D3400340D340A342034443445344234CB
:10107600553447342034313420340D340A340034A6
:101086000D340A342034443445344234553447341C
:101096002034323420340D340A3400340D340A340A
:1010A60020344F344B3420344734423420340D340A
:0410B6000A340034C4
:101F8E00031021009D1C03140030093D0800F000D1
:101F9E00700823009A009E1CD52FD62FD22F080032
:101FAE00210091160B1723001E129D171D169E164B
:101FBE00080021008E160E1223001E129F151E15EC
:101FCE0044309B0008002100C100410823009A0004
:101FDE009E1CF22FF32FEF2F0800640080010131B9
:101FEE000130FE020030FF3B7F087E04031DF52FFB
:021FFE000034AD
:020000040001F9
:08000000FF3FFF3FFF3FFF3F00
:04000E006C09FF1F5B
:00000001FF
